S01A000050726F6A65637420616E64206472697665732E7372656333
S11300000C942A000C9447000C9447000C9447006D
S11300100C9447000C9447000C9447000C94470040
S11300200C9447000C9447000C9447000C94470030
S11300300C9447000C9447000C9447000C94470020
S11300400C9447000C9447000C9447000C94470010
S11300500C94470011241FBECFE5D8E0DEBFCDBF0E
S113006010E0A0E6B0E0E8EBFCE002C005900D92E1
S1130070A036B107D9F710E0A0E6B0E001C01D92A8
S1130080A136B107E1F70E94C7040C945A060C94F8
S11300900000379A3E9A3F98329A319A309A78946F
S11300A0339A0895369A349BFECF84B195B1392F93
S11300B020E090E0822B932B0895369A089584B122
S11300C095B1392F20E090E0822B932B089584344E
S11300D009F471C0853448F4823499F1833408F00A
S11300E04DC0813409F083C00FC0823651F183368C
S11300F020F4813609F07BC007C0833609F43EC082
S1130100843609F074C057C0413069F42AB381E0E1
S113011090E0AC0102C0440F551F6A95E2F7BA01A2
S1130120622B6ABB08952AB381E090E0AC0102C05F
S1130130440F551F6A95E2F7BA01609562236ABBC2
S11301400895413069F427B381E090E0AC0102C026
S1130150440F551F6A95E2F7BA01622B67BB0895F5
S113016027B381E090E0AC0102C0440F551F6A95AB
S1130170E2F7BA016095622367BB0895413069F4E0
S113018024B381E090E0AC0102C0440F551F6A958E
S1130190E2F7BA01622B64BB089524B381E090E0D6
S11301A0AC0102C0440F551F6A95E2F7BA0160958D
S11301B0622364BB0895413069F421B381E090E087
S11301C0AC0102C0440F551F6A95E2F7BA01622BD5
S11301D061BB089521B381E090E0AC0102C0440FFB
S11301E0551F6A95E2F7BA016095622361BB0895D1
S11301F0843409F471C0853448F4823499F1833429
S113020008F04DC0813409F083C00FC0823651F12B
S1130210833620F4813609F07BC007C0833609F4A5
S11302203EC0843609F074C057C0413069F42BB322
S113023081E090E0AC0102C0440F551F6A95E2F7DB
S1130240BA01622B6BBB08952BB381E090E0AC0143
S113025002C0440F551F6A95E2F7BA016095622304
S11302606BBB0895413069F428B381E090E0AC01A0
S113027002C0440F551F6A95E2F7BA01622B68BBAE
S1130280089528B381E090E0AC0102C0440F551FEB
S11302906A95E2F7BA016095622368BB089541301C
S11302A069F425B381E090E0AC0102C0440F551F0E
S11302B06A95E2F7BA01622B65BB089525B381E024
S11302C090E0AC0102C0440F551F6A95E2F7BA01F1
S11302D06095622365BB0895413069F422B381E0DF
S11302E090E0AC0102C0440F551F6A95E2F7BA01D1
S11302F0622B62BB089522B381E090E0AC0102C09E
S1130300440F551F6A95E2F7BA016095622362BBF8
S11303100895843409F43DC0853440F48234F9F0FE
S1130320833450F5813409F040C00CC08236B9F0F2
S1130330833618F48136C9F505C08336E9F084366E
S1130340A1F527C02BB381E090E0AC0102C0440FBB
S1130350551F6A95E2F7BA0162276BBB089528B36B
S113036081E090E0AC0102C0440F551F6A95E2F7AA
S1130370BA01622768BB089525B381E090E0AC011F
S113038002C0440F551F6A95E2F7BA01622765BBA4
S1130390089522B381E090E0AC0102C0440F551FE0
S11303A06A95E2F7BA01622762BB0895843409F4BE
S11303B04EC0853440F4823431F18334B0F5813455
S11303C009F057C00EC08236F1F0833620F481362E
S11303D009F04FC006C0833641F1843609F049C0A4
S11303E036C029B381E090E0062E02C0880F991F21
S11303F00A94E2F730E08223932302C0959587950F
S11304006A95E2F7089526B381E090E0062E02C0D3
S1130410880F991F0A94E2F730E08223932302C0E5
S1130420959587956A95E2F7089523B381E090E066
S1130430062E02C0880F991F0A94E2F730E0822347
S1130440932302C0959587956A95E2F7089520B3A2
S113045081E090E0062E02C0880F991F0A94E2F70B
S113046030E08223932302C0959587956A95E2F73D
S1130470089580E00895843409F471C0853448F403
S1130480823499F1833408F04DC0813409F083C07B
S11304900FC0823651F1833620F4813609F07BC0D7
S11304A007C0833609F43EC0843609F074C057C0CF
S11304B0413069F42BB381E090E0AC0102C0440FF9
S11304C0551F6A95E2F7BA01622B6BBB08952BB3F3
S11304D081E090E0AC0102C0440F551F6A95E2F739
S11304E0BA01609562236BBB0895413069F428B367
S11304F081E090E0AC0102C0440F551F6A95E2F719
S1130500BA01622B68BB089528B381E090E0AC0186
S113051002C0440F551F6A95E2F7BA016095622341
S113052068BB0895413069F425B381E090E0AC01E3
S113053002C0440F551F6A95E2F7BA01622B65BBEE
S1130540089525B381E090E0AC0102C0440F551F2B
S11305506A95E2F7BA016095622365BB089541305C
S113056069F422B381E090E0AC0102C0440F551F4E
S11305706A95E2F7BA01622B62BB089522B381E067
S113058090E0AC0102C0440F551F6A95E2F7BA012E
S11305906095622362BB0895823461F0833418F459
S11305A0813469F405C0833439F0843441F406C0DD
S11305B06BBB089568BB089565BB089562BB08953D
S11305C09CB38DBB7FBB6EBBE29AE19A0895E1991F
S11305D0FECF9FBB8EBBE89A8DB3089584E460E0A0
S11305E041E00E94670084E461E041E00E9467000A
S11305F084E462E041E00E94670084E463E041E057
S11306000E94670084E464E040E00E94670084E4A0
S113061065E040E00E94670084E466E040E00E94F8
S1130620670084E467E040E00E94670084E464E0DB
S113063041E00E94F80084E465E041E00E94F80093
S113064084E466E041E00E94F80084E467E041E06D
S11306500E94F80008951F93CF93DF93D0E014E035
S113066084E460E041E00E94F80084E461E041E059
S11306700E94F80084E462E041E00E94F80084E40F
S113068063E041E00E94F80084E46D2F40E00E94A2
S1130690F800C12F84E46C2F0E94D601CF5FC830CC
S11306A0C9F7DF5FD430E1F68FEFDF91CF911F916F
S11306B0089582E460E041E00E94670082E461E022
S11306C041E00E94670082E462E041E00E9467002A
S11306D082E463E041E00E94670082E464E041E078
S11306E00E94670082E465E041E00E94670082E4C2
S11306F066E041E00E94670082E467E041E00E9416
S113070067000895682F84E40E94CC02089582E073
S113071080B9089516BE86B7806886BF86B78460A0
S113072086BF86B7806286BF06B607FEFDCF81B15D
S11307300895880F83B986B7806886BF06B607FE1A
S1130740FDCF81B1089583B986B7806886BF06B6A8
S113075007FEFDCF81B1089586B7806186BF86B755
S1130760806886BF0895CF93DF93D82FC62F0E9449
S11307708A038D2F0E9499038C2F0E94A3030E9449
S1130780AC03DF91CF910895880F82B986B7806852
S113079086BF86B7846086BF86B7806486BF0895A7
S11307A086B7806886BF06B607FEFDCF91B1987FF5
S11307B081E0903609F080E008958FEF8ABB86B718
S11307C0806886BF86B7846086BF86B7806486BF2C
S11307D006B607FEFDCF8FEF87BB83B10895C39A9A
S11307E08FE39CE90197F1F700C00000C3988FE8FC
S11307F092EE0197F1F700C0000008958BBBC198F9
S11308000E94EF0308958FEF8ABB87B3876087BB8D
S1130810C29888E30E94FE0381E00E94FE038EE0FA
S11308200E94FE038FE39CE90197F1F700C00000EA
S113083008958BBBC19A0E94EF030895CF93DF9371
S1130840EC018881882331F021960E941904899152
S11308508823D9F7DF91CF91089581E00E94FE03A8
S11308600895813021F461586093600005C082309E
S113087019F4615460936000809160000E94FE034B
S11308800895C19A8FEF90E7A2E081509040A04074
S1130890E1F700C00000C1988FEF90E7A2E081501B
S11308A09040A040E1F700C000000895CF93C82F06
S11308B0C1988BB38F708BBB8BB39C2F907F892B8C
S11308C08BBB0E9441048BB38F708BBB8BB3C295DF
S11308D0C07FC82BCBBB0E944104CF91089580EF09
S11308E08ABB87B38E6087BBC29883E30E94560499
S11308F082E30E94560488E20E94560481E00E942A
S113090056048EE00E9456048FE39CE90197F1F7A8
S113091000C000000895CF93C82FC19A8BB38F7085
S11309208BBB8BB39C2F907F892B8BBB0E94410484
S11309308BB38F708BBB8BB3C295C07FC82BCBBBE3
S11309400E944104CF910895CF93DF93EC018881F5
S1130950882331F021960E948B0489918823D9F74A
S1130960DF91CF91089581E00E94FE0308958130C4
S113097021F461586093600005C0823019F4615419
S113098060936000809160000E9456040895FFCF38
S1130990689A6C9ABC9ABD9ABF9A6B9A6A9AC49ADE
S11309A06E9A08956C98BE9A6B9A6A9A6E9A089594
S11309B0C4988FB9779BFECFC49A0895779BFECFD6
S11309C08FB1089583B78F7B83BF83B7886083BF5C
S11309D083B7816083BF83B78D7F83BF83B7846010
S11309E083BF8EE48CBF789489B7826089BF0895F1
S11309F081E08CBF83B7886083BF83B7806483BF83
S1130A0083B7806283BF83B78F7E83BFBB9A83B76C
S1130A10816083BF83B78D7F83BF83B7846083BFC7
S1130A20789489B7816089BF089520E030E040E878
S1130A3053E40E94AD050E9458056CBF0895DC0183
S1130A40CB01880F991FAA1FBB1F880F991FAA1FCC
S1130A50BB1F9C01AD01220F331F441F551F220FE2
S1130A60331F441F551F60E072E18AE790E00E9443
S1130A70380629B9232F330F330B20BD539A549AC8
S1130A8080B58F7B80BD80B5826080BD80B5846079
S1130A9080BD80B58B7F80BD7894579A569A08950F
S1130AA08CB95E9BFECF08955F9BFECF8CB10895F9
S1130AB033D088F09F5790F0B92F9927B751A0F001
S1130AC0D1F0660F771F881F991F1AF0BA95C9F7DE
S1130AD012C0B13081F03AD0B1E0089537C0672F29
S1130AE0782F8827B85F39F0B93FCCF3869577958E
S1130AF06795B395D9F73EF4909580957095619577
S1130B007F4F8F4F9F4F089557FD9058440F551FA7
S1130B1059F05F3F71F04795880F97FB991F61F07B
S1130B209F3F79F087950895121613061406551FF2
S1130B30F2CF4695F1DF08C0161617061806991F5E
S1130B40F1CF86957105610508940895E894BB2753
S1130B5066277727CB0197F908950BD078C069D021
S1130B6028F06ED018F0952309F05AC05FC0112404
S1130B70EECFCADFA0F3959FD1F3950F50E0551F38
S1130B80629FF001729FBB27F00DB11D639FAA27DE
S1130B90F00DB11DAA1F649F6627B00DA11D661F2D
S1130BA0829F2227B00DA11D621F739FB00DA11D4E
S1130BB0621F839FA00D611D221F749F3327A00D08
S1130BC0611D231F849F600D211D822F762F6A2FA4
S1130BD011249F5750408AF0E1F088234AF0EE0F29
S1130BE0FF1FBB1F661F771F881F91505040A9F736
S1130BF09E3F510570F014C0AACF5F3FECF3983EBE
S1130C00DCF3869577956795B795F795E7959F5F9C
S1130C10C1F7FE2B880F911D9695879597F9089536
S1130C2097F99F6780E870E060E008959FEF80EC9B
S1130C30089500240A94161617061806090608953E
S1130C4000240A9412161306140605060895092EA4
S1130C500394000C11F4882352F0BB0F40F4BF2B13
S1130C6011F460FF04C06F5F7F4F8F4F9F4F089553
S1130C70A1E21A2EAA1BBB1BFD010DC0AA1FBB1F9C
S1130C80EE1FFF1FA217B307E407F50720F0A21B0E
S1130C90B30BE40BF50B661F771F881F991F1A947B
S1130CA069F760957095809590959B01AC01BD01A5
S10B0CB0CF010895F894FFCF71
S9030000FC
