:100000000C942A000C9447000C9447000C94470071
:100010000C9447000C9447000C9447000C94470044
:100020000C9447000C9447000C9447000C94470034
:100030000C9447000C9447000C9447000C94470024
:100040000C9447000C9447000C9447000C94470014
:100050000C94470011241FBECFE5D8E0DEBFCDBF12
:1000600011E0A0E6B0E0E4EBF5E102C005900D92EE
:10007000AA38B107D9F711E0AAE8B1E001C01D9292
:10008000A03FB107E1F70E94B6080C94D80A0C947F
:100090000000379A3E9A3F98329A319A309A789473
:1000A000339A0895369A349BFECF84B195B1392F97
:1000B00020E090E0822B932B0895369A089584B126
:1000C00095B1392F20E090E0822B932B0895843452
:1000D00009F471C0853448F4823499F1833408F00E
:1000E0004DC0813409F083C00FC0823651F1833690
:1000F00020F4813609F07BC007C0833609F43EC086
:10010000843609F074C057C0413069F42AB381E0E5
:1001100090E0AC0102C0440F551F6A95E2F7BA01A6
:10012000622B6ABB08952AB381E090E0AC0102C063
:10013000440F551F6A95E2F7BA01609562236ABBC6
:100140000895413069F427B381E090E0AC0102C02A
:10015000440F551F6A95E2F7BA01622B67BB0895F9
:1001600027B381E090E0AC0102C0440F551F6A95AF
:10017000E2F7BA016095622367BB0895413069F4E4
:1001800024B381E090E0AC0102C0440F551F6A9592
:10019000E2F7BA01622B64BB089524B381E090E0DA
:1001A000AC0102C0440F551F6A95E2F7BA01609591
:1001B000622364BB0895413069F421B381E090E08B
:1001C000AC0102C0440F551F6A95E2F7BA01622BD9
:1001D00061BB089521B381E090E0AC0102C0440FFF
:1001E000551F6A95E2F7BA016095622361BB0895D5
:1001F000843409F471C0853448F4823499F183342D
:1002000008F04DC0813409F083C00FC0823651F12F
:10021000833620F4813609F07BC007C0833609F4A9
:100220003EC0843609F074C057C0413069F42BB326
:1002300081E090E0AC0102C0440F551F6A95E2F7DF
:10024000BA01622B6BBB08952BB381E090E0AC0147
:1002500002C0440F551F6A95E2F7BA016095622308
:100260006BBB0895413069F428B381E090E0AC01A4
:1002700002C0440F551F6A95E2F7BA01622B68BBB2
:10028000089528B381E090E0AC0102C0440F551FEF
:100290006A95E2F7BA016095622368BB0895413020
:1002A00069F425B381E090E0AC0102C0440F551F12
:1002B0006A95E2F7BA01622B65BB089525B381E028
:1002C00090E0AC0102C0440F551F6A95E2F7BA01F5
:1002D0006095622365BB0895413069F422B381E0E3
:1002E00090E0AC0102C0440F551F6A95E2F7BA01D5
:1002F000622B62BB089522B381E090E0AC0102C0A2
:10030000440F551F6A95E2F7BA016095622362BBFC
:100310000895843409F43DC0853440F48234F9F002
:10032000833450F5813409F040C00CC08236B9F0F6
:10033000833618F48136C9F505C08336E9F0843672
:10034000A1F527C02BB381E090E0AC0102C0440FBF
:10035000551F6A95E2F7BA0162276BBB089528B36F
:1003600081E090E0AC0102C0440F551F6A95E2F7AE
:10037000BA01622768BB089525B381E090E0AC0123
:1003800002C0440F551F6A95E2F7BA01622765BBA8
:10039000089522B381E090E0AC0102C0440F551FE4
:1003A0006A95E2F7BA01622762BB0895843409F4C2
:1003B0004EC0853440F4823431F18334B0F5813459
:1003C00009F057C00EC08236F1F0833620F4813632
:1003D00009F04FC006C0833641F1843609F049C0A8
:1003E00036C029B381E090E0062E02C0880F991F25
:1003F0000A94E2F730E08223932302C09595879513
:100400006A95E2F7089526B381E090E0062E02C0D7
:10041000880F991F0A94E2F730E08223932302C0E9
:10042000959587956A95E2F7089523B381E090E06A
:10043000062E02C0880F991F0A94E2F730E082234B
:10044000932302C0959587956A95E2F7089520B3A6
:1004500081E090E0062E02C0880F991F0A94E2F70F
:1004600030E08223932302C0959587956A95E2F741
:10047000089580E00895843409F471C0853448F407
:10048000823499F1833408F04DC0813409F083C07F
:100490000FC0823651F1833620F4813609F07BC0DB
:1004A00007C0833609F43EC0843609F074C057C0D3
:1004B000413069F42BB381E090E0AC0102C0440FFD
:1004C000551F6A95E2F7BA01622B6BBB08952BB3F7
:1004D00081E090E0AC0102C0440F551F6A95E2F73D
:1004E000BA01609562236BBB0895413069F428B36B
:1004F00081E090E0AC0102C0440F551F6A95E2F71D
:10050000BA01622B68BB089528B381E090E0AC018A
:1005100002C0440F551F6A95E2F7BA016095622345
:1005200068BB0895413069F425B381E090E0AC01E7
:1005300002C0440F551F6A95E2F7BA01622B65BBF2
:10054000089525B381E090E0AC0102C0440F551F2F
:100550006A95E2F7BA016095622365BB0895413060
:1005600069F422B381E090E0AC0102C0440F551F52
:100570006A95E2F7BA01622B62BB089522B381E06B
:1005800090E0AC0102C0440F551F6A95E2F7BA0132
:100590006095622362BB0895823461F0833418F45D
:1005A000813469F405C0833439F0843441F406C0E1
:1005B0006BBB089568BB089565BB089562BB089541
:1005C0009CB38DBB7FBB6EBBE29AE19A0895E19923
:1005D000FECF9FBB8EBBE89A8DB308950E94640640
:1005E0000E944F0780E06EE170E00E94E0020895F3
:1005F00080E690E00E9489078FE798E3A1E08150B0
:100600009040A040E1F700C0000008950E94C2079A
:1006100088E690E00E94890781E062E00E949F07DF
:1006200081E790E00E94890708952F923F924F92B0
:100630005F926F927F928F929F92AF92BF92DF9262
:10064000EF92FF920F931F93CF93DF938C017B0167
:10065000EA0142175307F9F4209709F4AAC0DC0114
:100660009C91FB0180819817D9F55B014801DD243D
:100670000F2EF9E94F2EF0E05F2EF02D0F2EFAE845
:100680006F2EF1E07F2EF02D0F2EF2EA2F2EF0E0EC
:100690003F2EF02D58C00E94C20781E061E00E9409
:1006A0009F078AE790E00E9489078FEF99E6A8E10B
:1006B00081509040A040E1F700C0000080E07AC087
:1006C0008D2D90E04801880E991E5701A80EB91E85
:1006D000D4019C91F50180819817A9F175018401DD
:1006E0000E94C20781E061E00E949F078FE790E0CF
:1006F0000E948907CAE8D1E0D8018C9190E0BE0140
:100700004AE050E00E94930A0E94890781E062E07B
:100710000E949F078CE890E00E948907F701808182
:1007200090E0BE014AE050E00E94930A0E948907CF
:100730008FEF94E3ACE081509040A040E1F700C01F
:10074000000080E037C00E94C20781E061E00E94A3
:100750009F07C2010E948907D4018C9190E0B301E8
:100760004AE050E00E94930A0E94890781E062E01B
:100770000E949F07C1010E948907F501808190E0D6
:10078000B3014AE050E00E94930A0E9489078FEF6C
:1007900093EDA0E381509040A040E1F700C000003D
:1007A000D3948D2D90E08C179D0708F489CF81E0BC
:1007B00001C081E0DF91CF911F910F91FF90EF90E9
:1007C000DF90BF90AF909F908F907F906F905F90E1
:1007D0004F903F902F900895CF92DF92EF92FF922B
:1007E0000F931F93CF93DF93CDB7DEB764970FB608
:1007F000F894DEBF0FBECDBFFE0131968AE0DF0167
:100800001D928A95E9F70E94C20781E061E00E948B
:100810009F078BEA90E00E94890781E062E00E94D6
:100820009F070E94A106082F89EB90E00E9489078C
:100830000E94C20781E061E00E949F078FEB90E079
:100840000E94890781E062E00E949F070E94A10642
:10085000282F4D898B8590E0602F70E050E030E0CC
:100860000E9415038823B1F1F894898160E170E05A
:100870000E94E0020023A9F0015010E00E5F1F4F1C
:10088000EE24FF24E3946E010894C11CD11C8C2D2E
:10089000B7010E94E0020894E11CF11CE016F10689
:1008A000B1F778940E94C20782ED90E00E94890718
:1008B00081E062E00E949F0783EE90E00E9489073A
:1008C0008FEF99E6A8E181509040A040E1F700C089
:1008D00000001DC00E94C20781E061E00E949F07E6
:1008E00089EE90E00E94890781E062E00E949F0704
:1008F0008AEF90E00E9489078FEF99E6A8E1815086
:100900009040A040E1F700C000000E94EC03649614
:100910000FB6F894DEBF0FBECDBFDF91CF911F9110
:100920000F91FF90EF90DF90CF900895FF920F937B
:100930001F93CF93DF93C82F162F072F80E190E0EE
:100940000E94E702F82E8C1711F5882311F1C12FB0
:10095000D02F10E0099180E190E00E94E702081793
:1009600089F00E94C20788E091E00E9489078FEF1A
:1009700099E6A8E181509040A040E1F700C0000056
:1009800080E008C01F5F1F1529F781E003C080E0E9
:1009900001C081E0DF91CF911F910F91FF900895E9
:1009A0000F931F93CF93DF93CDB7DEB72A970FB680
:1009B000F894DEBF0FBECDBF8E010F5F1F4F8AE0E0
:1009C000F80111928A95E9F70E94C2078DE091E043
:1009D0000E9489070E94A106B8010E9496048823FC
:1009E00019F00E94EC0302C00E94D0042A960FB6B0
:1009F000F894DEBF0FBECDBFDF91CF911F910F9155
:100A0000089508950F931F93CF93DF938EE190E0A5
:100A10000E94E702682F6F5F6093EE018EE170E045
:100A20000E94E0028EE190E00E94E702843089F5A6
:100A30000E94C20781E061E00E949F0780E291E08E
:100A40000E94890781E062E00E949F078BE291E0AB
:100A50000E948907CCE3D0E00AE811E08EE062E072
:100A60000E949F07CE01B8014AE050E00E94930A1D
:100A7000C8010E9489078FEF90E7A2E08150904063
:100A8000A040E1F700C00000219741F70E94060353
:100A90004AC08EE190E00E94E7028A3028F18FEF91
:100AA00065E070E00E94E0020E9401058823D1F118
:100AB0000E94C20787E391E00E94890780E065E019
:100AC00070E00E94E00280E06EE170E00E94E002CF
:100AD0008FEF99E6A8E181509040A040E1F700C077
:100AE00000000E94EC031FC00E94C20781E061E089
:100AF0000E949F078CE491E00E94890781E062E0F8
:100B00000E949F0782E591E00E9489078FEF99E696
:100B1000A8E181509040A040E1F700C000000E9491
:100B2000060301C0FFCFDF91CF911F910F91089570
:100B30000F931F93CF93DF93CDB7DEB72A970FB6EE
:100B4000F894DEBF0FBECDBF8E010F5F1F4F8AE04E
:100B5000F80111928A95E9F70E94C2078CE591E0AD
:100B60000E9489070E94A106B8010E94960488236A
:100B700011F0AD9A02C00E9402052A960FB6F894B1
:100B8000DEBF0FBECDBFDF91CF911F910F910895B2
:100B90000F931F93CF93DF93CDB7DEB72A970FB68E
:100BA000F894DEBF0FBECDBF8E010F5F1F4F8AE0EE
:100BB000F80111928A95E9F70E94C2078CE591E04D
:100BC0000E94890781E062E00E949F070E94A106BF
:100BD000B8010E949604882311F0AD9A02C00E94C9
:100BE00002052A960FB6F894DEBF0FBECDBFDF9187
:100BF000CF911F910F91089582E080B9089516BE9C
:100C000086B7806886BF86B7846086BF86B78062F5
:100C100086BF06B607FEFDCF81B10895880F83B960
:100C200086B7806886BF06B607FEFDCF81B10895FE
:100C300083B986B7806886BF06B607FEFDCF81B14F
:100C4000089586B7806186BF86B7806886BF08959D
:100C5000CF93DF93D82FC62F0E94FF058D2F0E94C0
:100C60000E068C2F0E9418060E942106DF91CF915C
:100C70000895880F82B986B7806886BF86B784607A
:100C800086BF86B7806486BF089586B7806886BFB2
:100C900006B607FEFDCF91B1987F81E0903609F04E
:100CA00080E008958FEF8ABB86B7806886BF86B7DD
:100CB000846086BF86B7806486BF06B607FEFDCF18
:100CC0008FEF87BB83B1089584E460E041E00E9428
:100CD000670084E461E041E00E94670084E462E030
:100CE00041E00E94670084E463E041E00E94670005
:100CF00084E464E040E00E94670084E465E040E052
:100D00000E94670084E466E040E00E94670084E49B
:100D100067E040E00E94670084E464E041E00E94F4
:100D2000F80084E465E041E00E94F80084E466E0B5
:100D300041E00E94F80084E467E041E00E94F8008E
:100D40000895CF92DF92FF920F931F93CF93DF937B
:100D5000CDB7DEB760970FB6F894DEBF0FBECDBF3C
:100D600000E00F2EFBE6CF2EF1E0DF2EF02DFF246A
:100D70006894F4F884E460E041E00E94F80084E4C0
:100D800061E041E00E94F80084E462E041E00E94FA
:100D9000F80084E463E041E00E94F80084E4602FFE
:100DA00040E00E94F80010E0DE011196F6018F2D60
:100DB00001900D928150E1F7612F6C5F84E40E94F5
:100DC000D601882361F4E02FF0E0EE0FFF1FEE0F55
:100DD000FF1FE10FF11DEC0FFD1F818110C01F5F90
:100DE000143011F70F5F043029F68FE79AE1A6E07F
:100DF00081509040A040E1F700C000008FEF609666
:100E00000FB6F894DEBF0FBECDBFDF91CF911F911B
:100E10000F91FF90DF90CF90089582E460E041E071
:100E20000E94670082E461E041E00E94670082E482
:100E300062E041E00E94670082E463E041E00E94DA
:100E4000670082E464E041E00E94670082E465E0BC
:100E500041E00E94670082E466E041E00E94670092
:100E600082E467E041E00E9467000895682F84E40F
:100E70000E94CC020895C29A8FE39CE90197F1F792
:100E800000C00000C2988FE892EE0197F1F700C011
:100E9000000008958BBBC0980E943B0708958FEF18
:100EA0008ABB87B3876087BBC19888E30E944A07E3
:100EB00081E00E944A078EE00E944A078FE39CE986
:100EC0000197F1F700C0000008958BBBC09A0E9403
:100ED0003B070895CF93DF93EC018881882331F09D
:100EE00021960E94650789918823D9F7DF91CF91D8
:100EF0000895813021F461586093EF0105C082307C
:100F000019F461546093EF018091EF010E944A0748
:100F100008950F931F93CF938C01FC018081882348
:100F200051F0C0E00E946507CF5FF801EC0FF11DA2
:100F300080818823B9F7CF911F910F910895CF93A6
:100F4000DF9300D000D0CDB7DEB790E8998390EC66
:100F50009A8394E99B8394ED9C838150FE01E60F74
:100F6000F11D9081890F0E944A0787EC90E001975C
:100F7000F1F700C000000F900F900F900F90DF91DD
:100F8000CF9108958FEF99E6A8E181509040A0405D
:100F9000E1F700C0000081E00E944A0781E061E0C3
:100FA0000E949F070895C09A8FEF90E7A2E08150BA
:100FB0009040A040E1F700C00000C0988FEF90E79C
:100FC000A2E081509040A040E1F700C000000895E9
:100FD000CF93C82FC0988BB38F708BBB8BB39C2FD4
:100FE000907F892B8BBB0E94D3078BB38F708BBBF9
:100FF0008BB3C295C07FC82BCBBB0E94D307CF91C8
:10100000089580EF8ABB87B38E6087BBC19883E366
:101010000E94E80782E30E94E80788E20E94E8074E
:1010200081E00E94E8078EE00E94E8078FE39CE9D8
:101030000197F1F700C000000895CF93C82FC09A20
:101040008BB38F708BBB8BB39C2F907F892B8BBB0B
:101050000E94D3078BB38F708BBB8BB3C295C07FBD
:10106000C82BCBBB0E94D307CF910895CF93DF93BA
:10107000EC018881882331F021960E941D08899116
:101080008823D9F7DF91CF910895813019F4962FF5
:10109000915804C0823011F4962F9154892F0E94E8
:1010A000E80708950F931F93CF938C01FC01808173
:1010B000882351F0C0E00E941D08CF5FF801EC0FBB
:1010C000F11D80818823B9F7CF911F910F91089569
:1010D000CF93DF9300D000D0CDB7DEB790E89983EF
:1010E00090EC9A8394E99B8394ED9C838150FE015C
:1010F000E60FF11D9081890F0E94E80787EC90E0D0
:101100000197F1F700C000000F900F900F900F9023
:10111000DF91CF91089581E00E944A078FEF93ED10
:10112000A0E381509040A040E1F700C0000081E0C2
:1011300061E00E946808089590E070E041E050E0AE
:101140000E946700089590E070E041E050E00E9446
:10115000F800089590E070E040E050E00E94F80050
:10116000089590E070E00E94890108958FEF84BB9C
:101170000E94EE02CBE7D1E006E811E085E090E0C6
:101180000E94E7028F3FE1F40E9401058823E1F30A
:101190000E94C207CE010E94890780E065E070E0EE
:1011A0000E94E00280E06EE170E00E94E0028FEFBA
:1011B00099E6A8E181509040A040E1F700C000000E
:1011C0000E94F8020E9406030E94A1068F3F21F4AC
:1011D0000E94A1068F3FE1F3AD98AE98AC9A81339F
:1011E00039F4C8010E948907AC980E94C80506C05E
:1011F000823321F40E94EC030E9498050E94A1060C
:10120000BDCF689A6C9ABC9ABD9ABF9A6B9A6A9A3B
:10121000C49A6E9A08956C98BE9A6B9A6A9A6E9A5E
:101220000895C4988FB9779BFECFC49A0895779B91
:10123000FECF8FB1089583B78F7B83BF83B788605C
:1012400083BF83B7816083BF83B78D7F83BF83B73D
:10125000846083BF8EE48CBF789489B7826089BF35
:10126000089581E08CBF83B7886083BF83B78064B3
:1012700083BF83B7806283BF83B78F7E83BFBB9AF0
:1012800083B7816083BF83B78D7F83BF83B784605B
:1012900083BF789489B7816089BF089520E030E0EA
:1012A00040E853E40E94E6090E9491096CBF08954A
:1012B000DC01CB01880F991FAA1FBB1F880F991F44
:1012C000AA1FBB1F9C01AD01220F331F441F551FD6
:1012D000220F331F441F551F60E072E18AE790E040
:1012E0000E94710A29B9232F330F330B20BD539A63
:1012F000549A80B58F7B80BD80B5826080BD80B5FB
:10130000846080BD80B58B7F80BD7894579A569A53
:1013100008958CB95E9BFECF08955F9BFECF8CB184
:10132000089533D088F09F5790F0B92F9927B7517F
:10133000A0F0D1F0660F771F881F991F1AF0BA9599
:10134000C9F712C0B13081F03AD0B1E0089537C08A
:10135000672F782F8827B85F39F0B93FCCF386958F
:1013600077956795B395D9F73EF4909580957095EC
:1013700061957F4F8F4F9F4F089557FD9058440FB1
:10138000551F59F05F3F71F04795880F97FB991FE4
:1013900061F09F3F79F087950895121613061406A1
:1013A000551FF2CF4695F1DF08C01616170618062E
:1013B000991FF1CF86957105610508940895E89409
:1013C000BB2766277727CB0197F908950BD078C004
:1013D00069D028F06ED018F0952309F05AC05FC08C
:1013E0001124EECFCADFA0F3959FD1F3950F50E003
:1013F000551F629FF001729FBB27F00DB11D639FC7
:10140000AA27F00DB11DAA1F649F6627B00DA11D6C
:10141000661F829F2227B00DA11D621F739FB00D12
:10142000A11D621F839FA00D611D221F749F332782
:10143000A00D611D231F849F600D211D822F762F1B
:101440006A2F11249F5750408AF0E1F088234AF018
:10145000EE0FFF1FBB1F661F771F881F9150504064
:10146000A9F79E3F510570F014C0AACF5F3FECF37F
:10147000983EDCF3869577956795B795F795E79550
:101480009F5FC1F7FE2B880F911D9695879597F961
:10149000089597F99F6780E870E060E008959FEFF6
:1014A00080EC089500240A941616170618060906FB
:1014B000089500240A9412161306140605060895CA
:1014C000092E0394000C11F4882352F0BB0F40F452
:1014D000BF2B11F460FF04C06F5F7F4F8F4F9F4F92
:1014E0000895A1E21A2EAA1BBB1BFD010DC0AA1F65
:1014F000BB1FEE1FFF1FA217B307E407F50720F07D
:10150000A21BB30BE40BF50B661F771F881F991FF7
:101510001A9469F760957095809590959B01AC0140
:10152000BD01CF010895FB019F01E8944230C4F052
:101530004532B4F44A3029F497FB1EF49095819516
:101540009F4F642F77270E94C40A805D8A330CF076
:10155000895D8193CB010097A1F716F45DE2519369
:101560001082C9010C94B40ADC01FC01672F71914F
:101570007723E1F7329704C07C916D937083629179
:10158000AE17BF07C8F30895AA1BBB1B51E107C0E4
:10159000AA1FBB1FA617B70710F0A61BB70B881F03
:1015A000991F5A95A9F780959095BC01CD01089592
:0415B000F894FFCFDD
:1015B40057656C636F6D650028312941646D696EF0
:1015C4000028322947756573740021203D2000707E
:1015D400617373776F726431203D2000706173739F
:1015E400776F726432203D20007061737331203D47
:1015F40020007061737332203D20004E65772050C7
:10160400617373776F72643A003132683233005217
:10161400652D656E7465722050617373776F7264A3
:101624003A00596F75722070617373776F7264201A
:101634006973007361766564004661696C65642052
:101644006F7065726174696F6E00506C7A2C54729D
:101654007920616761696E0073746F7000456E7400
:101664006572204F6C642050617373776F726400ED
:1016740077726F6E67207061737300747279206182
:1016840067696E20696E005375636365737366756D
:101694006C206F7065726174696F6E0057726F6E43
:1016A400670074727920616761696E00456E7465C4
:1016B400722050617373776F7264003738392F3436
:1016C40035362A3132332D6F303D2B5375636365C4
:0A16D400737366756C00686900000E
:00000001FF
