:100000000C942A000C9447000C9447000C94470071
:100010000C9447000C9447000C9447000C94470044
:100020000C9447000C9447000C9447000C94470034
:100030000C9447000C9447000C9447000C94470024
:100040000C946C0D0C9447000C9447000C944700E2
:100050000C94470011241FBECFE5D8E0DEBFCDBF12
:1000600011E0A0E6B0E0E4E7FFE102C005900D92E8
:10007000A637B107D9F711E0A6E7B1E001C01D929C
:10008000AD37B107E1F70E94F60C0C94B80F0C9451
:100090000000379A3E9A3F98329A319A309A789473
:1000A000339A0895369A349BFECF84B195B1392F97
:1000B00020E090E0822B932B0895369A089584B126
:1000C00095B1392F20E090E0822B932B0895843452
:1000D00009F471C0853448F4823499F1833408F00E
:1000E0004DC0813409F083C00FC0823651F1833690
:1000F00020F4813609F07BC007C0833609F43EC086
:10010000843609F074C057C0413069F42AB381E0E5
:1001100090E0AC0102C0440F551F6A95E2F7BA01A6
:10012000622B6ABB08952AB381E090E0AC0102C063
:10013000440F551F6A95E2F7BA01609562236ABBC6
:100140000895413069F427B381E090E0AC0102C02A
:10015000440F551F6A95E2F7BA01622B67BB0895F9
:1001600027B381E090E0AC0102C0440F551F6A95AF
:10017000E2F7BA016095622367BB0895413069F4E4
:1001800024B381E090E0AC0102C0440F551F6A9592
:10019000E2F7BA01622B64BB089524B381E090E0DA
:1001A000AC0102C0440F551F6A95E2F7BA01609591
:1001B000622364BB0895413069F421B381E090E08B
:1001C000AC0102C0440F551F6A95E2F7BA01622BD9
:1001D00061BB089521B381E090E0AC0102C0440FFF
:1001E000551F6A95E2F7BA016095622361BB0895D5
:1001F000843409F471C0853448F4823499F183342D
:1002000008F04DC0813409F083C00FC0823651F12F
:10021000833620F4813609F07BC007C0833609F4A9
:100220003EC0843609F074C057C0413069F42BB326
:1002300081E090E0AC0102C0440F551F6A95E2F7DF
:10024000BA01622B6BBB08952BB381E090E0AC0147
:1002500002C0440F551F6A95E2F7BA016095622308
:100260006BBB0895413069F428B381E090E0AC01A4
:1002700002C0440F551F6A95E2F7BA01622B68BBB2
:10028000089528B381E090E0AC0102C0440F551FEF
:100290006A95E2F7BA016095622368BB0895413020
:1002A00069F425B381E090E0AC0102C0440F551F12
:1002B0006A95E2F7BA01622B65BB089525B381E028
:1002C00090E0AC0102C0440F551F6A95E2F7BA01F5
:1002D0006095622365BB0895413069F422B381E0E3
:1002E00090E0AC0102C0440F551F6A95E2F7BA01D5
:1002F000622B62BB089522B381E090E0AC0102C0A2
:10030000440F551F6A95E2F7BA016095622362BBFC
:100310000895843409F43DC0853440F48234F9F002
:10032000833450F5813409F040C00CC08236B9F0F6
:10033000833618F48136C9F505C08336E9F0843672
:10034000A1F527C02BB381E090E0AC0102C0440FBF
:10035000551F6A95E2F7BA0162276BBB089528B36F
:1003600081E090E0AC0102C0440F551F6A95E2F7AE
:10037000BA01622768BB089525B381E090E0AC0123
:1003800002C0440F551F6A95E2F7BA01622765BBA8
:10039000089522B381E090E0AC0102C0440F551FE4
:1003A0006A95E2F7BA01622762BB0895843409F4C2
:1003B0004EC0853440F4823431F18334B0F5813459
:1003C00009F057C00EC08236F1F0833620F4813632
:1003D00009F04FC006C0833641F1843609F049C0A8
:1003E00036C029B381E090E0062E02C0880F991F25
:1003F0000A94E2F730E08223932302C09595879513
:100400006A95E2F7089526B381E090E0062E02C0D7
:10041000880F991F0A94E2F730E08223932302C0E9
:10042000959587956A95E2F7089523B381E090E06A
:10043000062E02C0880F991F0A94E2F730E082234B
:10044000932302C0959587956A95E2F7089520B3A6
:1004500081E090E0062E02C0880F991F0A94E2F70F
:1004600030E08223932302C0959587956A95E2F741
:10047000089580E00895843409F471C0853448F407
:10048000823499F1833408F04DC0813409F083C07F
:100490000FC0823651F1833620F4813609F07BC0DB
:1004A00007C0833609F43EC0843609F074C057C0D3
:1004B000413069F42BB381E090E0AC0102C0440FFD
:1004C000551F6A95E2F7BA01622B6BBB08952BB3F7
:1004D00081E090E0AC0102C0440F551F6A95E2F73D
:1004E000BA01609562236BBB0895413069F428B36B
:1004F00081E090E0AC0102C0440F551F6A95E2F71D
:10050000BA01622B68BB089528B381E090E0AC018A
:1005100002C0440F551F6A95E2F7BA016095622345
:1005200068BB0895413069F425B381E090E0AC01E7
:1005300002C0440F551F6A95E2F7BA01622B65BBF2
:10054000089525B381E090E0AC0102C0440F551F2F
:100550006A95E2F7BA016095622365BB0895413060
:1005600069F422B381E090E0AC0102C0440F551F52
:100570006A95E2F7BA01622B62BB089522B381E06B
:1005800090E0AC0102C0440F551F6A95E2F7BA0132
:100590006095622362BB0895823461F0833418F45D
:1005A000813469F405C0833439F0843441F406C0E1
:1005B0006BBB089568BB089565BB089562BB089541
:1005C000E199FECF8DBB7FBB6EBBE29AE19A0895A5
:1005D000E199FECF9FBB8EBBE89A8DB308950E9430
:1005E000B00A0E94AC0D0E94920B0E9449000E942A
:1005F000BC0D089580E690E00E94AD0B0E94020CB5
:10060000089581E00E948D0B88E690E090E00E94C2
:10061000AD0B82E061E00E94BC0B87E790E090E0C8
:100620000E94AD0B0E94ED0A8F3FE1F30E94ED0A9C
:10063000E0917B01F0917C0112821182E0917B01BB
:10064000F0917C01218132812A3F3105D8F3089550
:10065000EF92FF921F93CF93DF9300D000D0CDB7DE
:10066000DEB781E00E948D0B86E890E090E00E946A
:10067000AD0B82E061E00E94BC0B7E010894E11C9E
:10068000F11C10E00E94ED0A8F3FE1F30E94ED0A99
:10069000F70181937F010E94A80B1330A9F1E0912B
:1006A0007B01F0917C0112821182E0917B01F0913B
:1006B0007C018181928121E0843F9207D0F31F5F0A
:1006C00082E0612F0E94BC0B8AE20E94A80B1430CA
:1006D000C9F6E0917B01F0917C0112821182E091D8
:1006E0007B01F0917C01818192818A3F9105D8F351
:1006F000CE0101960F900F900F900F90DF91CF9148
:100700001F91FF90EF900895612F6F5F82E00E942C
:10071000BC0B8AE20E94A80BDCCFEF92FF921F93E2
:10072000CF93DF9300D000D0CDB7DEB782E061E099
:100730000E94BC0B7E010894E11CF11C10E00E9499
:10074000ED0A8F3FE1F30E94ED0AF70181937F01EB
:100750000E94A80B133031F1E0917B01F0917C01F4
:1007600012821182E0917B01F0917C018181928162
:1007700021E0843F9207D0F31F5F82E0612F0E9447
:10078000BC0B8AE20E94A80B1430C9F6CE01019678
:100790000F900F900F900F90DF91CF911F91FF90CE
:1007A000EF900895612F6F5F82E00E94BC0B8AE298
:1007B0000E94A80BEBCFCF93DF93CDB7DEB7A19705
:1007C0000FB6F894DEBF0FBECDBFDE011196E5E98E
:1007D000F0E09CE001900D929150E1F7DE011D9652
:1007E000E1EAF0E09DE001900D929150E1F7DE0129
:1007F0005A96EEEAF0E098E001900D929150E1F700
:10080000823031F1833009F445C0813009F04BC0AA
:100810000E948D0BCE0101960E94AD0B0E948D03AC
:10082000E82FF92F34E080E094E051E00DC0252F4F
:10083000220F91509130E1F74191249F202D1124F6
:10084000820F9150315079F1923088F7252FF4CFF3
:1008500081E00E948D0BCE010D960E94AD0B0E948F
:100860008D03E82FF92F80E030E094E051E00EC0D6
:10087000252F220F91509130E1F74191249F202D97
:100880001124820F3F5F9150343069F0923080F72D
:10089000252FF3CF81E00E948D0BCE014A960E9456
:1008A000AD0B80E000C0A1960FB6F894DEBF0FBE7E
:1008B000CDBFDF91CF910895EF92FF921F93CF9319
:1008C000DF930E942803E82FF92F24E0C0E084E0A2
:1008D00041E00DC0942F990F81508130E1F73191A3
:1008E000939F902D1124C90F8150215021F0823007
:1008F00088F7942FF4CF10E080E190E00E94E802A6
:100900008C17E1F11F5F1330A1F1E0917B01F091B1
:100910007C011082C0917B01D0917C01688170E0E4
:1009200080E090E00E94830E20E030E048EC51E44B
:100930000E94510E882394F3812F0E94DB03C82F5D
:10094000E0917B01F0917C011082E0907B01F090BE
:100950007C01F701608170E080E090E00E94830EEE
:1009600020E030E048EC51E40E94510E88238CF3E3
:10097000C3CF812F0E94DB0380E001C081E0DF91C3
:10098000CF911F91FF90EF900895CF93DF93CDB754
:10099000DEB728970FB6F894DEBF0FBECDBFDE01DD
:1009A0001196EEEAF0E088E001900D928150E1F7B7
:1009B000CE0101960E94AD0B28960FB6F894DEBFCB
:1009C0000FBECDBFDF91CF910895882329F460E257
:1009D00070E00E94E0020895813021F460E270E04E
:1009E0000E94E002089580E190E00E94E80291E018
:1009F0008F3F09F090E0892F0895CF92DF92FF9208
:100A00000F931F93CF93DF93CDB7DEB761970FB6E8
:100A1000F894DEBF0FBECDBFDE011196E6EBF0E02D
:100A20008DE001900D928150E1F781E00E948D0BE5
:100A3000CE0101960E94AD0B82E061E00E94BC0BEA
:100A40000F2EFEE0CF2EDD24F02DCC0EDD1EFF2478
:100A50000E94ED0A8F3FE1F30E94ED0AF6018193B7
:100A60006F010E94A80BF3E0FF1609F45CC0E0914F
:100A70007B01F0917C01108200917B0110917C013F
:100A8000F801608170E080E090E00E94830E20E039
:100A900030E048EC51E40E94510E88238CF3F3942B
:100AA00082E06F2D0E94BC0B8AE20E94A80BF4E04A
:100AB000FF1671F6E0917B01F0917C011082E091CC
:100AC0007B01F0917C0180818233E8F3FE013E9648
:100AD0009E012E5E3F4F80E094E061E00EC0462F05
:100AE000440F91509130E1F75191459F402D1124D1
:100AF000840F9150E217F30721F0923080F7462FD0
:100B0000F3CF60E170E00E94E00261960FB6F894C6
:100B1000DEBF0FBECDBFDF91CF911F910F91FF9030
:100B2000DF90CF9008956F2D6F5F82E00E94BC0B25
:100B30008AE20E94A80BBECFFF920F931F93CF9320
:100B4000DF93CDB7DEB76A970FB6F894DEBF0FBE5E
:100B5000CDBFDE011196E3ECF0E089E001900D924B
:100B60008150E1F7DE011A96ECECF0E089E00190AB
:100B70000D928150E1F7DE015396E5EDF0E088E05B
:100B800001900D928150E1F781E00E948D0BCE0122
:100B900001960E94AD0B81E06AE00E94BC0BCE0181
:100BA0000A960E94AD0B82E061E00E94BC0BCE0170
:100BB00043960E94AD0B82E068E00E94BC0B0E944D
:100BC000ED0A8F3FE1F30E94ED0AF82EE0917B01E0
:100BD000F0917C01108200917B0110917C01F80161
:100BE000608170E080E090E00E94830E20E030E0C1
:100BF00048EC51E40E94510E88238CF38F2D6A96A5
:100C00000FB6F894DEBF0FBECDBFDF91CF911F911D
:100C10000F91FF900895FF920F931F93CF93DF934F
:100C2000CDB7DEB76E970FB6F894DEBF0FBECDBF5F
:100C3000DE011196EDEDF0E089E001900D9281501A
:100C4000E1F7DE011A96E6EEF0E086E001900D9203
:100C50008150E1F7DE015096ECEEF0E08FE001907C
:100C60000D928150E1F781E00E948D0BCE0101963B
:100C70000E94AD0B81E06AE00E94BC0BCE010A9697
:100C80000E94AD0B82E061E00E94BC0BCE01409659
:100C90000E94AD0B82E06EE00E94BC0B0E94ED0A48
:100CA0008F3FE1F30E94ED0AF82EE0917B01F09175
:100CB0007C01108200917B0110917C01F801608120
:100CC00070E080E090E00E94830E20E030E048EC8D
:100CD00051E40E94510E88238CF38F2D6E960FB62F
:100CE000F894DEBF0FBECDBFDF91CF911F910F9162
:100CF000FF900895FF920F931F93CF93DF93CDB78B
:100D0000DEB7A7970FB6F894DEBF0FBECDBFDE01EA
:100D10001196EBEFF0E097E001900D929150E1F722
:100D2000FE013896A2E0B1E098E00D90019291505A
:100D3000E1F7FE017096AAE0B1E09AE00D90019211
:100D40009150E1F7FE017A96A4E1B1E097E00D90B1
:100D500001929150E1F7FE01B196ABE1B1E097E06D
:100D60000D9001929150E1F7813329F0823339F0EF
:100D7000803361F408C08E01065E1F4F07C08E01EC
:100D80000F5D1F4F03C08E010F5F1F4F81E00E9458
:100D90008D0B81E066E00E94BC0BC8010E94AD0B88
:100DA00082E061E00E94BC0BCE0108960E94AD0B70
:100DB00082E068E00E94BC0BCE0140960E94AD0B21
:100DC00082E060E10E94BC0B0E94ED0A8F3FE1F3DC
:100DD0000E94ED0AF82EE0917B01F0917C011082D7
:100DE00000917B0110917C01F801608170E080E04E
:100DF00090E00E94830E20E030E048EC51E40E9435
:100E0000510E88238CF3FDE3FF1621F08AE2F816D9
:100E100019F003C081E001C080E0A7960FB6F894F6
:100E2000DEBF0FBECDBFDF91CF911F910F91FF901D
:100E30000895CF93DF93CDB7DEB768970FB6F894D8
:100E4000DEBF0FBECDBFDE011196E2E2F1E088E029
:100E500001900D928150E1F7DE011996EAE2F1E08E
:100E600089E001900D928150E1F7DE015296E3E3B3
:100E7000F1E087E001900D928150E1F781E00E945E
:100E80008D0BCE0142960E94AD0B81E062E00E9484
:100E9000BC0BCE0101960E94AD0B82E069E00E947E
:100EA000BC0BCE0109960E94AD0B81E068E00E9468
:100EB000BC0B68960FB6F894DEBF0FBECDBFDF91B6
:100EC000CF9108951F93CF93DF930E9419070E943B
:100ED000ED0A8F3FE1F30E94ED0A182FE0917B01AC
:100EE000F0917C011082C0917B01D0917C016881DE
:100EF00070E080E090E00E94830E20E030E048EC5B
:100F000051E40E94510E882394F3113329F01033D9
:100F100029F01D3329F005C081E303C080E301C03F
:100F20008DE3DF91CF911F910895FF920F931F934F
:100F3000CF93DF93CDB7DEB768970FB6F894DEBFD7
:100F40000FBECDBFDE011196EAE3F1E086E001902D
:100F50000D928150E1F7DE011796E2E0F1E088E0C2
:100F600001900D928150E1F7DE011F96EAE0F1E079
:100F70008AE001900D928150E1F781E00E948D0B93
:100F800086E061E00E94BC0BCE0101960E94AD0B91
:100F900082E061E00E94BC0BCE0107960E94AD0B7F
:100FA00082E068E00E94BC0BCE010F960E94AD0B60
:100FB00082E060E10E94BC0B0E94ED0A8F3FE1F3EA
:100FC0000E94ED0AF82EE0917B01F0917C011082E5
:100FD00000917B0110917C01F801608170E080E05C
:100FE00090E00E94830E20E030E048EC51E40E9443
:100FF000510E88238CF3FDE3FF1621F08AE2F816E8
:1010000019F003C081E001C080E068960FB6F89443
:10101000DEBF0FBECDBFDF91CF911F910F91FF902B
:101020000895CF93DF93CDB7DEB76B970FB6F894E3
:10103000DEBF0FBECDBFDE011196E0E4F1E089E036
:1010400001900D928150E1F7DE011A96E9E4F1E09A
:101050008AE001900D928150E1F7DE015496E2E0C2
:10106000F1E088E001900D928150E1F781E00E946B
:101070008D0BCE0144960E94AD0B82E061E00E9490
:10108000BC0BCE0101960E94AD0B82E069E00E948C
:10109000BC0BCE010A960E94AD0B81E068E00E9475
:1010A000BC0B6B960FB6F894DEBF0FBECDBFDF91C1
:1010B000CF9108951F93CF93DF930E9411080E9450
:1010C000ED0A8F3FE1F30E94ED0A182FE0917B01BA
:1010D000F0917C011082C0917B01D0917C016881EC
:1010E00070E080E090E00E94830E20E030E048EC69
:1010F00051E40E94510E882394F3113329F01033E8
:1011000029F01D3329F005C081E303C080E301C04D
:101110008DE3DF91CF911F910895FF920F931F935D
:10112000CF93DF93CDB7DEB768970FB6F894DEBFE5
:101130000FBECDBFDE011196E3E5F1E086E0019040
:101140000D928150E1F7DE011796E2E0F1E088E0D0
:1011500001900D928150E1F7DE011F96EAE0F1E087
:101160008AE001900D928150E1F781E00E948D0BA1
:1011700081E066E00E94BC0BCE0101960E94AD0B9F
:1011800082E061E00E94BC0BCE0107960E94AD0B8D
:1011900082E068E00E94BC0BCE010F960E94AD0B6E
:1011A00082E060E10E94BC0B0E94ED0A8F3FE1F3F8
:1011B0000E94ED0AF82EE0917B01F0917C011082F3
:1011C00000917B0110917C01F801608170E080E06A
:1011D00090E00E94830E20E030E048EC51E40E9451
:1011E000510E88238CF3FDE3FF1621F08AE2F816F6
:1011F00019F003C081E001C080E068960FB6F89452
:10120000DEBF0FBECDBFDF91CF911F910F91FF9039
:101210000895CF93DF93CDB7DEB72D970FB6F8942F
:10122000DEBF0FBECDBFDE011196E9E5F1E08DE036
:1012300001900D928150E1F781E00E948D0BCE016B
:1012400001960E94AD0B82E061E00E94BC0B2D96DE
:101250000FB6F894DEBF0FBECDBFDF91CF910895DA
:10126000CF92DF92EF92FF920F931F93CF93DF9372
:1012700000D0CDB7DEB70E9409097E010894E11CB9
:10128000F11C0F2EF3E0CF2EDD24F02DCC0EDD1E51
:101290000E94ED0A8F3FE1F30E94ED0AF70181936E
:1012A0007F010E94A80BE0917B01F0917C011082EC
:1012B00000917B0110917C01F801608170E080E079
:1012C00090E00E94830E20E030E048EC51E40E9460
:1012D000510E88238CF3EC14FD04D1F60E94ED0A24
:1012E0008B32E1F7E0917B01F0917C01108200915B
:1012F0007B0110917C01F801608170E080E090E05A
:101300000E94830E20E030E048EC51E40E94510E30
:1013100088238CF3CE0101960F900F90DF91CF912F
:101320001F910F91FF90EF90DF90CF900895FC01F7
:10133000818180519081990F292F220F220F920FC6
:10134000890F0895FC0190818181890F805C9281D1
:10135000890F9381890F0895CF930E9428030E94DB
:10136000A209C82F80E490E00E94E80291E0C8132F
:1013700090E0892FCF910895FF920F931F93CF9301
:10138000DF93CDB7DEB76B970FB6F894DEBF0FBE15
:10139000CDBFDE011196E3ECF0E089E001900D9203
:1013A0008150E1F7DE011A96ECECF0E089E0019063
:1013B0000D928150E1F7DE015396EDEDF0E089E00A
:1013C00001900D928150E1F781E00E948D0BCE01DA
:1013D00001960E94AD0B81E06AE00E94BC0BCE0139
:1013E0000A960E94AD0B82E061E00E94BC0BCE0128
:1013F00043960E94AD0B82E068E00E94BC0B0E9405
:10140000ED0A8F3FE1F30E94ED0AF82EE0917B0197
:10141000F0917C01108200917B0110917C01F80118
:10142000608170E080E090E00E94830E20E030E078
:1014300048EC51E40E94510E88238CF38F2D6B965B
:101440000FB6F894DEBF0FBECDBFDF91CF911F91D5
:101450000F91FF900895A39A0895A3980895E0919D
:101460007901F0917A01248190E0880F991F880F0B
:10147000991F30E08217930714F0A49808952481EF
:1014800030E0821793070CF4A49A0895A498089565
:1014900082E080B9089516BE86B7806886BF86B799
:1014A000846086BF86B7806286BF06B607FEFDCF22
:1014B00081B10895880F83B986B7806886BF06B664
:1014C00007FEFDCF81B1089583B986B7806886BFD6
:1014D00006B607FEFDCF81B1089586B7806186BF4D
:1014E00086B7806886BF0895CF93DF93D82FC62F25
:1014F0000E944B0A8D2F0E945A0A8C2F0E94640A68
:101500000E946D0ADF91CF910895880F82B986B746
:10151000806886BF86B7846086BF86B7806486BFD2
:10152000089586B7806886BF06B607FEFDCF91B1E5
:10153000987F81E0903609F080E008958FEF8ABBB4
:1015400086B7806886BF86B7846086BF86B78064AA
:1015500086BF06B607FEFDCF8FEF87BB83B1089528
:1015600084E460E041E00E94670084E461E041E0DF
:101570000E94670084E462E041E00E94670084E426
:1015800063E041E00E94670084E464E040E00E9480
:10159000670084E465E040E00E94670084E466E060
:1015A00040E00E94670084E467E040E00E9467003A
:1015B00084E464E041E00E94F80084E465E041E0F6
:1015C0000E94F80084E466E041E00E94F80084E4B0
:1015D00067E041E00E94F8000895CF92DF92FF9209
:1015E0000F931F93CF93DF93CDB7DEB760970FB6FE
:1015F000F894DEBF0FBECDBF00E00F2EF6E6CF2E73
:10160000F1E0DF2EF02DFF246894F4F884E460E02C
:1016100041E00E94F80084E461E041E00E94F800AB
:1016200084E462E041E00E94F80084E463E041E089
:101630000E94F80084E4602F40E00E94F80010E06F
:10164000DE011196F6018F2D01900D928150E1F788
:10165000612F6C5F84E40E94D601882361F4E02F3F
:10166000F0E0EE0FFF1FEE0FFF1FE10FF11DEC0F7B
:10167000FD1F818107C01F5F143011F70F5F043019
:1016800029F68FEF60960FB6F894DEBF0FBECDBF80
:10169000DF91CF911F910F91FF90DF90CF90089530
:1016A00082E460E041E00E94670082E461E041E0A2
:1016B0000E94670082E462E041E00E94670082E4E9
:1016C00063E041E00E94670082E464E041E00E9440
:1016D000670082E465E041E00E94670082E466E022
:1016E00041E00E94670082E467E041E00E946700F9
:1016F0000895682F84E40E94CC020895C09A8FE375
:101700009CE90197F1F700C00000C0988FE39CE9C5
:101710000197F1F700C0000008958BBBC2980E94AA
:101720007E0B08958FEF8ABB87B3876087BBC19814
:1017300088E30E948D0B81E00E948D0B8EE00E9459
:101740008D0B8FE39CE90197F1F700C0000008952D
:101750008BBBC29A0E947E0B0895CF93DF93EC015E
:101760008881882331F021960E94A80B89918823D3
:10177000D9F7DF91CF910895813019F4962F9158C0
:1017800004C0823011F4962F9154892F0E948D0B42
:1017900008950F931F93CF938C01FC0180818823C0
:1017A00051F0C0E00E94A80BCF5FF801EC0FF11DD3
:1017B00080818823B9F7CF911F910F910895CF931E
:1017C000DF9300D000D0CDB7DEB790E8998390ECDE
:1017D0009A8394E99B8394ED9C838150FE01E60FEC
:1017E000F11D9081890F0E948D0B87EC90E001978D
:1017F000F1F700C000000F900F900F900F90DF9155
:10180000CF9108958FEF99E6A8E181509040A040D4
:10181000E1F700C0000081E00E948D0B81E061E0F3
:101820000E94DF0B0895C29A8FEF90E7A2E08150EB
:101830009040A040E1F700C00000C2988FEF90E711
:10184000A2E081509040A040E1F700C00000089560
:10185000CF93C82FC2988BB38F708BBB8BB39C2F49
:10186000907F892B8BBB0E94130C8BB38F708BBB2B
:101870008BB3C295C07FC82BCBBB0E94130CCF91FA
:10188000089580EF8ABB87B38E6087BBC19883E3DE
:101890000E94280C82E30E94280C88E20E94280CF7
:1018A00081E00E94280C8EE00E94280C8FE39CE9C6
:1018B0000197F1F700C000000895CF93C82FC29A96
:1018C0008BB38F708BBB8BB39C2F907F892B8BBB83
:1018D0000E94130C8BB38F708BBB8BB3C295C07FF0
:1018E000C82BCBBB0E94130CCF910895CF93DF93ED
:1018F000EC018881882331F021960E945D0C89914A
:101900008823D9F7DF91CF910895813019F4962F6C
:10191000915804C0823011F4962F9154892F0E945F
:10192000280C08950F931F93CF938C01FC018081A5
:10193000882351F0C0E00E945D0CCF5FF801EC0FEE
:10194000F11D80818823B9F7CF911F910F910895E0
:10195000CF93DF9300D000D0CDB7DEB790E8998366
:1019600090EC9A8394E99B8394ED9C838150FE01D3
:10197000E60FF11D9081890F0E94280C87EC90E002
:101980000197F1F700C000000F900F900F900F909B
:10199000DF91CF91089581E00E948D0B8FEF93ED41
:1019A000A0E381509040A040E1F700C0000081E03A
:1019B00061E00E94A80C089590E070E041E050E0E2
:1019C0000E946700089590E070E041E050E00E94BE
:1019D000F800089590E070E040E050E00E94F800C8
:1019E000089590E070E00E9489010895CF93DF93FD
:1019F00000D000D00F92CDB7DEB78FE184BB1ABA0A
:101A0000CE01019690937A0180937901009179013A
:101A100010917A010E94B80DF8018083009179013C
:101A200010917A01F8018081823391F0833328F498
:101A3000803351F0813351F709C0843351F184333D
:101A400060F0873319F706C0A09AE0CFA19ADECFE5
:101A5000A29ADCCF14BAF894D9CF009179011091F1
:101A60007A010E94B80DF8018183E0917901F0912B
:101A70007A018181813339F40E942B0A0E94B80DCA
:101A8000873321F6E7CF803309F0C0CF0E942B0ABD
:101A9000E4CF0E94B80DF8018283E0917901F091C2
:101AA0007A018281813389F47894009179011091CF
:101AB0007A010E94B80DF80183830E945D000E94A4
:101AC000B80D873309F0A2CFC5CF803309F09ECF80
:101AD000F8940E94460A9ACF1F920F920FB60F9267
:101AE00011242F933F934F935F936F937F938F9323
:101AF0009F93AF93BF93CF93DF93EF93FF93C091E7
:101B00007901D0917A010E945F008C83E091790184
:101B1000F0917A0183810E942F0A0E945D00FF915B
:101B2000EF91DF91CF91BF91AF919F918F917F9175
:101B30006F915F914F913F912F910F900FBE0F903A
:101B40001F901895689A6C9ABC9ABD9ABF9A6B9A26
:101B50006A9AC49A6E9A08956C98BE9A6B9A6A9A19
:101B60006E9A0895C4988FB9779BFECFC49A089552
:101B7000779BFECF8FB108958EE48CBF83B78F7BA8
:101B800083BF83B7886083BF83B7816083BF83B718
:101B90008D7F83BF83B7846083BF789489B7826069
:101BA00089BF0895F8948DE093E09BBD8ABD789439
:101BB0008FB58E7F8FBD8FB58D7F8FBD8EB58860C1
:101BC0008EBD8EB58F7E8EBD8EB584608EBD8EB57A
:101BD00081608EBD8EB58D7F8EBD89B7806189BFD6
:101BE000089581E08CBF83B7886083BF83B780642A
:101BF00083BF83B7806283BF83B78F7E83BFBB9A67
:101C000083B7816083BF83B78D7F83BF83B78460D1
:101C100083BF789489B7816089BF089520E030E060
:101C200040E853E40E940B0F0E94550E6CBF0895CC
:101C3000DC01CB01880F991FAA1FBB1F880F991FBA
:101C4000AA1FBB1F9C01AD01220F331F441F551F4C
:101C5000220F331F441F551F60E072E18AE790E0B6
:101C60000E94960F29B9232F330F330B20BD539AAF
:101C7000549A80B58F7B80BD80B5826080BD80B571
:101C8000846080BD80B58B7F80BD7894579A569ACA
:101C900008958CB95E9BFECF08955F9BFECF8CB1FB
:101CA00008956CD008F481E0089594D088F09F578F
:101CB00090F0B92F9927B751A0F0D1F0660F771F98
:101CC000881F991F1AF0BA95C9F712C0B13081F078
:101CD0009BD0B1E0089598C0672F782F8827B85F10
:101CE00039F0B93FCCF3869577956795B395D9F7D9
:101CF0003EF490958095709561957F4F8F4F9F4FE3
:101D00000895E89409C097FB3EF4909580957095EE
:101D100061957F4F8F4F9F4F9923A9F0F92F96E937
:101D2000BB279395F695879577956795B795F111AC
:101D3000F8CFFAF4BB0F11F460FF1BC06F5F7F4F49
:101D40008F4F9F4F16C0882311F096E911C077235B
:101D500021F09EE8872F762F05C0662371F096E864
:101D6000862F70E060E02AF09A95660F771F881F33
:101D7000DAF7880F9695879597F90895990F0008D7
:101D8000550FAA0BE0E8FEEF16161706E807F9074D
:101D9000C0F012161306E407F50798F0621B730BE8
:101DA000840B950B39F40A2661F0232B242B252B69
:101DB00021F408950A2609F4A140A6958FEF811D0C
:101DC000811D089557FD9058440F551F59F05F3FEE
:101DD00071F04795880F97FB991F61F09F3F79F04D
:101DE00087950895121613061406551FF2CF4695CF
:101DF000F1DF08C0161617061806991FF1CF869551
:101E00007105610508940895E894BB276627772734
:101E1000CB0197F908950BD078C069D028F06ED027
:101E200018F0952309F05AC05FC01124EECFCADF25
:101E3000A0F3959FD1F3950F50E0551F629FF001DD
:101E4000729FBB27F00DB11D639FAA27F00DB11D36
:101E5000AA1F649F6627B00DA11D661F829F2227BF
:101E6000B00DA11D621F739FB00DA11D621F839F46
:101E7000A00D611D221F749F3327A00D611D231F1C
:101E8000849F600D211D822F762F6A2F11249F576A
:101E900050408AF0E1F088234AF0EE0FFF1FBB1F8D
:101EA000661F771F881F91505040A9F79E3F51052C
:101EB00070F014C0AACF5F3FECF3983EDCF3869538
:101EC00077956795B795F795E7959F5FC1F7FE2BD7
:101ED000880F911D9695879597F9089597F99F67B3
:101EE00080E870E060E008959FEF80EC08950024A2
:101EF0000A941616170618060906089500240A946F
:101F000012161306140605060895092E0394000CF4
:101F100011F4882352F0BB0F40F4BF2B11F460FF83
:101F200004C06F5F7F4F8F4F9F4F0895A1E21A2E1D
:101F3000AA1BBB1BFD010DC0AA1FBB1FEE1FFF1F6D
:101F4000A217B307E407F50720F0A21BB30BE40BBD
:101F5000F50B661F771F881F991F1A9469F7609504
:101F60007095809590959B01AC01BD01CF010895BE
:041F7000F894FFCF13
:101F740057656C636F6D650030203A204775657353
:101F840074204D6F64650031203A2041646D696EA0
:101F9400204D6F646500456E7465722050617373E3
:101FA400776F7264004661696C6564204F6E636587
:101FB400004661696C656420547769636500424C2E
:101FC4004F434B4544005365742050617373776FDE
:101FD400726400283029526F6F6D31002831295204
:101FE4006F6F6D3200282D294E65787400283229D0
:101FF400526F6F6D33002833295456002834294119
:102004006972436F6E6474696F6E00524F4F4D2056
:102014003100283D294D656E7500282A294C6F67CB
:102024006F757400524F4F4D203200524F4F4D2068
:102034003300313A5456204F4E00323A5456204F12
:10204400464600303A4D656E75005456204F4E009A
:102054002831294143204F4E002832294143204F43
:102064004646004143204F4E00456E74657220443D
:102074006567726565003738392F3435362A313251
:06208400332D6F303D2BEF
:00000001FF
